{
  "_format": "hh-sol-artifact-1",
  "contractName": "KycRegistryV3",
  "sourceName": "contracts/KycRegistryV3.sol",
  "abi": [
    {
      "anonymous": false,
      "inputs": [
        {
          "indexed": true,
          "internalType": "uint256",
          "name": "clientId",
          "type": "uint256"
        },
        {
          "indexed": false,
          "internalType": "uint32",
          "name": "version",
          "type": "uint32"
        }
      ],
      "name": "KycVersionAdded",
      "type": "event"
    },
    {
      "anonymous": false,
      "inputs": [
        {
          "indexed": true,
          "internalType": "uint256",
          "name": "clientId",
          "type": "uint256"
        },
        {
          "indexed": true,
          "internalType": "address",
          "name": "payer",
          "type": "address"
        },
        {
          "indexed": false,
          "internalType": "uint256",
          "name": "amount",
          "type": "uint256"
        }
      ],
      "name": "PaymentReceived",
      "type": "event"
    },
    {
      "anonymous": false,
      "inputs": [
        {
          "indexed": true,
          "internalType": "uint256",
          "name": "clientId",
          "type": "uint256"
        },
        {
          "indexed": false,
          "internalType": "string",
          "name": "newHash",
          "type": "string"
        },
        {
          "indexed": false,
          "internalType": "uint256",
          "name": "costSlice",
          "type": "uint256"
        }
      ],
      "name": "ProofNotarized",
      "type": "event"
    },
    {
      "inputs": [
        {
          "internalType": "uint256",
          "name": "clientId",
          "type": "uint256"
        },
        {
          "internalType": "string",
          "name": "hashKtp",
          "type": "string"
        },
        {
          "internalType": "string",
          "name": "hashKyc",
          "type": "string"
        },
        {
          "internalType": "string",
          "name": "status",
          "type": "string"
        }
      ],
      "name": "addKycVersion",
      "outputs": [],
      "stateMutability": "payable",
      "type": "function"
    },
    {
      "inputs": [
        {
          "internalType": "uint256",
          "name": "",
          "type": "uint256"
        },
        {
          "internalType": "uint256",
          "name": "",
          "type": "uint256"
        }
      ],
      "name": "banks_ids",
      "outputs": [
        {
          "internalType": "address",
          "name": "",
          "type": "address"
        }
      ],
      "stateMutability": "view",
      "type": "function"
    },
    {
      "inputs": [
        {
          "internalType": "uint256",
          "name": "clientId",
          "type": "uint256"
        },
        {
          "internalType": "string",
          "name": "hashKtp",
          "type": "string"
        },
        {
          "internalType": "string",
          "name": "hashKyc",
          "type": "string"
        }
      ],
      "name": "checkDocument",
      "outputs": [
        {
          "internalType": "bool",
          "name": "",
          "type": "bool"
        }
      ],
      "stateMutability": "view",
      "type": "function"
    },
    {
      "inputs": [],
      "name": "emergencyWithdraw",
      "outputs": [],
      "stateMutability": "nonpayable",
      "type": "function"
    },
    {
      "inputs": [],
      "name": "getContractBalance",
      "outputs": [
        {
          "internalType": "uint256",
          "name": "",
          "type": "uint256"
        }
      ],
      "stateMutability": "view",
      "type": "function"
    },
    {
      "inputs": [
        {
          "internalType": "uint256",
          "name": "clientId",
          "type": "uint256"
        },
        {
          "internalType": "uint32",
          "name": "version",
          "type": "uint32"
        }
      ],
      "name": "getKycByVersion",
      "outputs": [
        {
          "components": [
            {
              "internalType": "uint32",
              "name": "version",
              "type": "uint32"
            },
            {
              "internalType": "string",
              "name": "hashKtp",
              "type": "string"
            },
            {
              "internalType": "string",
              "name": "hashKyc",
              "type": "string"
            },
            {
              "internalType": "string",
              "name": "status",
              "type": "string"
            },
            {
              "internalType": "uint64",
              "name": "timestamp",
              "type": "uint64"
            },
            {
              "internalType": "address",
              "name": "issuer",
              "type": "address"
            },
            {
              "internalType": "bool",
              "name": "revoked",
              "type": "bool"
            }
          ],
          "internalType": "struct KycRegistryV3.Record",
          "name": "",
          "type": "tuple"
        }
      ],
      "stateMutability": "view",
      "type": "function"
    },
    {
      "inputs": [
        {
          "internalType": "uint256",
          "name": "clientId",
          "type": "uint256"
        }
      ],
      "name": "getLatestKyc",
      "outputs": [
        {
          "components": [
            {
              "internalType": "uint32",
              "name": "version",
              "type": "uint32"
            },
            {
              "internalType": "string",
              "name": "hashKtp",
              "type": "string"
            },
            {
              "internalType": "string",
              "name": "hashKyc",
              "type": "string"
            },
            {
              "internalType": "string",
              "name": "status",
              "type": "string"
            },
            {
              "internalType": "uint64",
              "name": "timestamp",
              "type": "uint64"
            },
            {
              "internalType": "address",
              "name": "issuer",
              "type": "address"
            },
            {
              "internalType": "bool",
              "name": "revoked",
              "type": "bool"
            }
          ],
          "internalType": "struct KycRegistryV3.Record",
          "name": "",
          "type": "tuple"
        }
      ],
      "stateMutability": "view",
      "type": "function"
    },
    {
      "inputs": [
        {
          "internalType": "uint256",
          "name": "clientId",
          "type": "uint256"
        }
      ],
      "name": "getParticipatingBanks",
      "outputs": [
        {
          "internalType": "address[]",
          "name": "",
          "type": "address[]"
        }
      ],
      "stateMutability": "view",
      "type": "function"
    },
    {
      "inputs": [
        {
          "internalType": "uint256",
          "name": "clientId",
          "type": "uint256"
        }
      ],
      "name": "getVersionCount",
      "outputs": [
        {
          "internalType": "uint32",
          "name": "",
          "type": "uint32"
        }
      ],
      "stateMutability": "view",
      "type": "function"
    },
    {
      "inputs": [
        {
          "internalType": "uint256",
          "name": "clientId",
          "type": "uint256"
        },
        {
          "internalType": "string",
          "name": "newHash",
          "type": "string"
        },
        {
          "internalType": "uint256",
          "name": "costSlice",
          "type": "uint256"
        }
      ],
      "name": "notarize",
      "outputs": [],
      "stateMutability": "nonpayable",
      "type": "function"
    },
    {
      "inputs": [
        {
          "internalType": "uint256",
          "name": "clientId",
          "type": "uint256"
        }
      ],
      "name": "pay",
      "outputs": [],
      "stateMutability": "payable",
      "type": "function"
    },
    {
      "inputs": [
        {
          "internalType": "uint256",
          "name": "clientId",
          "type": "uint256"
        },
        {
          "internalType": "uint32",
          "name": "version",
          "type": "uint32"
        }
      ],
      "name": "revokeVersion",
      "outputs": [],
      "stateMutability": "nonpayable",
      "type": "function"
    },
    {
      "inputs": [
        {
          "internalType": "uint256",
          "name": "",
          "type": "uint256"
        }
      ],
      "name": "totalBill",
      "outputs": [
        {
          "internalType": "uint256",
          "name": "",
          "type": "uint256"
        }
      ],
      "stateMutability": "view",
      "type": "function"
    }
  ],
  "bytecode": "0x608060405234801561001057600080fd5b5061359a806100206000396000f3fe6080604052600436106100c25760003560e01c8063899e83311161007f578063c290d69111610059578063c290d69114610291578063db2e21bc146102ad578063e57c727b146102c4578063ee7a904014610301576100c2565b8063899e8331146101ee57806396c6f8791461022b578063b110a03814610254576100c2565b8063035bc612146100c757806316d35f3f1461010457806342ccf6c9146101415780636e1f350c1461015d5780636f9fb98a146101865780637b06fdea146101b1575b600080fd5b3480156100d357600080fd5b506100ee60048036038101906100e991906121fc565b61033e565b6040516100fb9190612319565b60405180910390f35b34801561011057600080fd5b5061012b600480360381019061012691906121fc565b6103df565b604051610138919061234a565b60405180910390f35b61015b600480360381019061015691906123ca565b6103f7565b005b34801561016957600080fd5b50610184600480360381019061017f91906124cf565b6108a8565b005b34801561019257600080fd5b5061019b610af3565b6040516101a8919061234a565b60405180910390f35b3480156101bd57600080fd5b506101d860048036038101906101d391906121fc565b610afb565b6040516101e59190612696565b60405180910390f35b3480156101fa57600080fd5b50610215600480360381019061021091906124cf565b610e4d565b6040516102229190612696565b60405180910390f35b34801561023757600080fd5b50610252600480360381019061024d91906126b8565b61119b565b005b34801561026057600080fd5b5061027b600480360381019061027691906121fc565b611803565b604051610288919061273b565b60405180910390f35b6102ab60048036038101906102a691906121fc565b611822565b005b3480156102b957600080fd5b506102c2611c09565b005b3480156102d057600080fd5b506102eb60048036038101906102e69190612756565b611d6e565b6040516102f891906127a5565b60405180910390f35b34801561030d57600080fd5b50610328600480360381019061032391906127c0565b611dbc565b6040516103359190612864565b60405180910390f35b6060600160008381526020019081526020016000208054806020026020016040519081016040528092919081815260200182805480156103d357602002820191906000526020600020905b8160009054906101000a900473ffffffffffffffffffffffffffffffffffffffff1673ffffffffffffffffffffffffffffffffffffffff1681526020019060010190808311610389575b50505050509050919050565b60026020528060005260406000206000915090505481565b6000806000898152602001908152602001600020805490500361047b57670de0b6b3a7640000341461045e576040517f08c379a000000000000000000000000000000000000000000000000000000000815260040161045590612902565b60405180910390fd5b3460026000898152602001908152602001600020819055506105dc565b67016345785d8a000034146104c5576040517f08c379a00000000000000000000000000000000000000000000000000000000081526004016104bc90612994565b60405180910390fd5b60006001600089815260200190815260200160002080549050905060008111156105b057600081346104f79190612a12565b905060005b828110156105ad57600160008b8152602001908152602001600020818154811061052957610528612a43565b5b9060005260206000200160009054906101000a900473ffffffffffffffffffffffffffffffffffffffff1673ffffffffffffffffffffffffffffffffffffffff166108fc839081150290604051600060405180830381858888f19350505050158015610599573d6000803e3d6000fd5b5080806105a590612a72565b9150506104fc565b50505b34600260008a815260200190815260200160002060008282546105d39190612aba565b92505081905550505b600060016000808a8152602001908152602001600020805490506106009190612aee565b90506000808981526020019081526020016000206040518060e001604052808363ffffffff16815260200189898080601f016020809104026020016040519081016040528093929190818152602001838380828437600081840152601f19601f82011690508083019250505050505050815260200187878080601f016020809104026020016040519081016040528093929190818152602001838380828437600081840152601f19601f82011690508083019250505050505050815260200185858080601f016020809104026020016040519081016040528093929190818152602001838380828437600081840152601f19601f8201169050808301925050505050505081526020014267ffffffffffffffff1681526020013373ffffffffffffffffffffffffffffffffffffffff16815260200160001515815250908060018154018082558091505060019003906000526020600020906005020160009091909190915060008201518160000160006101000a81548163ffffffff021916908363ffffffff16021790555060208201518160010190816107a19190612d61565b5060408201518160020190816107b79190612d61565b5060608201518160030190816107cd9190612d61565b5060808201518160040160006101000a81548167ffffffffffffffff021916908367ffffffffffffffff16021790555060a08201518160040160086101000a81548173ffffffffffffffffffffffffffffffffffffffff021916908373ffffffffffffffffffffffffffffffffffffffff16021790555060c082015181600401601c6101000a81548160ff0219169083151502179055505050877fad66d911db60683a3fd2ee8d71b28b1bbcb7a629c304fe800461611b01caff9d82604051610896919061273b565b60405180910390a25050505050505050565b816001600080838152602001908152602001600020805490501015610902576040517f08c379a00000000000000000000000000000000000000000000000000000000081526004016108f990612e7f565b60405180910390fd5b60008082815260200190815260200160002060008154811061092757610926612a43565b5b906000526020600020906005020160040160089054906101000a900473ffffffffffffffffffffffffffffffffffffffff1673ffffffffffffffffffffffffffffffffffffffff163373ffffffffffffffffffffffffffffffffffffffff16146109c6576040517f08c379a00000000000000000000000000000000000000000000000000000000081526004016109bd90612eeb565b60405180910390fd5b60008263ffffffff161180156109f75750600080848152602001908152602001600020805490508263ffffffff1611155b610a36576040517f08c379a0000000000000000000000000000000000000000000000000000000008152600401610a2d90612f57565b60405180910390fd5b6000806000858152602001908152602001600020600184610a579190612f77565b63ffffffff1681548110610a6e57610a6d612a43565b5b9060005260206000209060050201905080600401601c9054906101000a900460ff1615610ad0576040517f08c379a0000000000000000000000000000000000000000000000000000000008152600401610ac790612ffb565b60405180910390fd5b600181600401601c6101000a81548160ff02191690831515021790555050505050565b600047905090565b610b03612157565b8160008060008381526020019081526020016000208054905011610b5c576040517f08c379a0000000000000000000000000000000000000000000000000000000008152600401610b5390613067565b60405180910390fd5b6000806000858152602001908152602001600020805490509050600080858152602001908152602001600020600182610b959190612f77565b63ffffffff1681548110610bac57610bab612a43565b5b90600052602060002090600502016040518060e00160405290816000820160009054906101000a900463ffffffff1663ffffffff1663ffffffff168152602001600182018054610bfb90612b84565b80601f0160208091040260200160405190810160405280929190818152602001828054610c2790612b84565b8015610c745780601f10610c4957610100808354040283529160200191610c74565b820191906000526020600020905b815481529060010190602001808311610c5757829003601f168201915b50505050508152602001600282018054610c8d90612b84565b80601f0160208091040260200160405190810160405280929190818152602001828054610cb990612b84565b8015610d065780601f10610cdb57610100808354040283529160200191610d06565b820191906000526020600020905b815481529060010190602001808311610ce957829003601f168201915b50505050508152602001600382018054610d1f90612b84565b80601f0160208091040260200160405190810160405280929190818152602001828054610d4b90612b84565b8015610d985780601f10610d6d57610100808354040283529160200191610d98565b820191906000526020600020905b815481529060010190602001808311610d7b57829003601f168201915b505050505081526020016004820160009054906101000a900467ffffffffffffffff1667ffffffffffffffff1667ffffffffffffffff1681526020016004820160089054906101000a900473ffffffffffffffffffffffffffffffffffffffff1673ffffffffffffffffffffffffffffffffffffffff1673ffffffffffffffffffffffffffffffffffffffff16815260200160048201601c9054906101000a900460ff16151515158152505092505050919050565b610e55612157565b60008263ffffffff16118015610e865750600080848152602001908152602001600020805490508263ffffffff1611155b610ec5576040517f08c379a0000000000000000000000000000000000000000000000000000000008152600401610ebc90612f57565b60405180910390fd5b600080848152602001908152602001600020600183610ee49190612f77565b63ffffffff1681548110610efb57610efa612a43565b5b90600052602060002090600502016040518060e00160405290816000820160009054906101000a900463ffffffff1663ffffffff1663ffffffff168152602001600182018054610f4a90612b84565b80601f0160208091040260200160405190810160405280929190818152602001828054610f7690612b84565b8015610fc35780601f10610f9857610100808354040283529160200191610fc3565b820191906000526020600020905b815481529060010190602001808311610fa657829003601f168201915b50505050508152602001600282018054610fdc90612b84565b80601f016020809104026020016040519081016040528092919081815260200182805461100890612b84565b80156110555780601f1061102a57610100808354040283529160200191611055565b820191906000526020600020905b81548152906001019060200180831161103857829003601f168201915b5050505050815260200160038201805461106e90612b84565b80601f016020809104026020016040519081016040528092919081815260200182805461109a90612b84565b80156110e75780601f106110bc576101008083540402835291602001916110e7565b820191906000526020600020905b8154815290600101906020018083116110ca57829003601f168201915b505050505081526020016004820160009054906101000a900467ffffffffffffffff1667ffffffffffffffff1667ffffffffffffffff1681526020016004820160089054906101000a900473ffffffffffffffffffffffffffffffffffffffff1673ffffffffffffffffffffffffffffffffffffffff1673ffffffffffffffffffffffffffffffffffffffff16815260200160048201601c9054906101000a900460ff161515151581525050905092915050565b8360016000808381526020019081526020016000208054905010156111f5576040517f08c379a00000000000000000000000000000000000000000000000000000000081526004016111ec90612e7f565b60405180910390fd5b60008082815260200190815260200160002060008154811061121a57611219612a43565b5b906000526020600020906005020160040160089054906101000a900473ffffffffffffffffffffffffffffffffffffffff1673ffffffffffffffffffffffffffffffffffffffff163373ffffffffffffffffffffffffffffffffffffffff16146112b9576040517f08c379a00000000000000000000000000000000000000000000000000000000081526004016112b090612eeb565b60405180910390fd5b600084849050116112ff576040517f08c379a00000000000000000000000000000000000000000000000000000000081526004016112f6906130d3565b60405180910390fd5b60008211611342576040517f08c379a000000000000000000000000000000000000000000000000000000000815260040161133990613165565b60405180910390fd5b60006001600080888152602001908152602001600020805490506113669190612aee565b90506000808781526020019081526020016000206040518060e001604052808363ffffffff16815260200187878080601f016020809104026020016040519081016040528093929190818152602001838380828437600081840152601f19601f8201169050808301925050505050505081526020016000808a815260200190815260200160002060016000808c81526020019081526020016000208054905061140f9190613185565b815481106114205761141f612a43565b5b9060005260206000209060050201600201805461143c90612b84565b80601f016020809104026020016040519081016040528092919081815260200182805461146890612b84565b80156114b55780601f1061148a576101008083540402835291602001916114b5565b820191906000526020600020905b81548152906001019060200180831161149857829003601f168201915b505050505081526020016040518060400160405280600781526020017f757064617465640000000000000000000000000000000000000000000000000081525081526020014267ffffffffffffffff1681526020013373ffffffffffffffffffffffffffffffffffffffff16815260200160001515815250908060018154018082558091505060019003906000526020600020906005020160009091909190915060008201518160000160006101000a81548163ffffffff021916908363ffffffff16021790555060208201518160010190816115929190612d61565b5060408201518160020190816115a89190612d61565b5060608201518160030190816115be9190612d61565b5060808201518160040160006101000a81548167ffffffffffffffff021916908367ffffffffffffffff16021790555060a08201518160040160086101000a81548173ffffffffffffffffffffffffffffffffffffffff021916908373ffffffffffffffffffffffffffffffffffffffff16021790555060c082015181600401601c6101000a81548160ff0219169083151502179055505050857f299df2035105b2bf4b792972c2b945694236e2b349496a90f3ce24d49366c76286868660405161168b939291906131f5565b60405180910390a2600060016000888152602001908152602001600020805490509050600081116116f1576040517f08c379a00000000000000000000000000000000000000000000000000000000081526004016116e890613273565b60405180910390fd5b83471015611734576040517f08c379a000000000000000000000000000000000000000000000000000000000815260040161172b906132df565b60405180910390fd5b600081856117429190612a12565b905060005b828110156117f857600160008a8152602001908152602001600020818154811061177457611773612a43565b5b9060005260206000200160009054906101000a900473ffffffffffffffffffffffffffffffffffffffff1673ffffffffffffffffffffffffffffffffffffffff166108fc839081150290604051600060405180830381858888f193505050501580156117e4573d6000803e3d6000fd5b5080806117f090612a72565b915050611747565b505050505050505050565b6000806000838152602001908152602001600020805490509050919050565b806000806000838152602001908152602001600020805490501161187b576040517f08c379a000000000000000000000000000000000000000000000000000000000815260040161187290613067565b60405180910390fd5b600034116118be576040517f08c379a00000000000000000000000000000000000000000000000000000000081526004016118b59061334b565b60405180910390fd5b60006001600084815260200190815260200160002080549050905060005b818110156119b4573373ffffffffffffffffffffffffffffffffffffffff166001600086815260200190815260200160002082815481106119205761191f612a43565b5b9060005260206000200160009054906101000a900473ffffffffffffffffffffffffffffffffffffffff1673ffffffffffffffffffffffffffffffffffffffff16036119a1576040517f08c379a0000000000000000000000000000000000000000000000000000000008152600401611998906133b7565b60405180910390fd5b80806119ac90612a72565b9150506118dc565b50600081036119da57346002600085815260200190815260200160002081905550611b41565b6000600260008581526020019081526020016000205490506000600183611a019190612aba565b905060008183611a119190612a12565b9050803410158015611a2e57508181611a2a9190612aba565b3411155b611a6d576040517f08c379a0000000000000000000000000000000000000000000000000000000008152600401611a6490613423565b60405180910390fd5b6000841115611b3d5760008434611a849190612a12565b905060005b85811015611b3a57600160008981526020019081526020016000208181548110611ab657611ab5612a43565b5b9060005260206000200160009054906101000a900473ffffffffffffffffffffffffffffffffffffffff1673ffffffffffffffffffffffffffffffffffffffff166108fc839081150290604051600060405180830381858888f19350505050158015611b26573d6000803e3d6000fd5b508080611b3290612a72565b915050611a89565b50505b5050505b60016000848152602001908152602001600020339080600181540180825580915050600190039060005260206000200160009091909190916101000a81548173ffffffffffffffffffffffffffffffffffffffff021916908373ffffffffffffffffffffffffffffffffffffffff1602179055503373ffffffffffffffffffffffffffffffffffffffff16837f4d3f6d68b42e1e039d6e7323b2b8bdeaf223f453882ce17a5984f4d6aabbdb3334604051611bfc919061234a565b60405180910390a3505050565b60008060008081526020019081526020016000208054905011611c61576040517f08c379a0000000000000000000000000000000000000000000000000000000008152600401611c589061348f565b60405180910390fd5b600080808152602001908152602001600020600081548110611c8657611c85612a43565b5b906000526020600020906005020160040160089054906101000a900473ffffffffffffffffffffffffffffffffffffffff1673ffffffffffffffffffffffffffffffffffffffff163373ffffffffffffffffffffffffffffffffffffffff1614611d25576040517f08c379a0000000000000000000000000000000000000000000000000000000008152600401611d1c906134fb565b60405180910390fd5b3373ffffffffffffffffffffffffffffffffffffffff166108fc479081150290604051600060405180830381858888f19350505050158015611d6b573d6000803e3d6000fd5b50565b60016020528160005260406000208181548110611d8a57600080fd5b906000526020600020016000915091509054906101000a900473ffffffffffffffffffffffffffffffffffffffff1681565b60008560008060008381526020019081526020016000208054905011611e17576040517f08c379a0000000000000000000000000000000000000000000000000000000008152600401611e0e90613067565b60405180910390fd5b600080600089815260200190815260200160002060016000808b815260200190815260200160002080549050611e4d9190613185565b81548110611e5e57611e5d612a43565b5b90600052602060002090600502016040518060e00160405290816000820160009054906101000a900463ffffffff1663ffffffff1663ffffffff168152602001600182018054611ead90612b84565b80601f0160208091040260200160405190810160405280929190818152602001828054611ed990612b84565b8015611f265780601f10611efb57610100808354040283529160200191611f26565b820191906000526020600020905b815481529060010190602001808311611f0957829003601f168201915b50505050508152602001600282018054611f3f90612b84565b80601f0160208091040260200160405190810160405280929190818152602001828054611f6b90612b84565b8015611fb85780601f10611f8d57610100808354040283529160200191611fb8565b820191906000526020600020905b815481529060010190602001808311611f9b57829003601f168201915b50505050508152602001600382018054611fd190612b84565b80601f0160208091040260200160405190810160405280929190818152602001828054611ffd90612b84565b801561204a5780601f1061201f5761010080835404028352916020019161204a565b820191906000526020600020905b81548152906001019060200180831161202d57829003601f168201915b505050505081526020016004820160009054906101000a900467ffffffffffffffff1667ffffffffffffffff1667ffffffffffffffff1681526020016004820160089054906101000a900473ffffffffffffffffffffffffffffffffffffffff1673ffffffffffffffffffffffffffffffffffffffff1673ffffffffffffffffffffffffffffffffffffffff16815260200160048201601c9054906101000a900460ff1615151515815250509050868660405161210892919061354b565b604051809103902081602001518051906020012014801561214a5750848460405161213492919061354b565b6040518091039020816040015180519060200120145b9250505095945050505050565b6040518060e00160405280600063ffffffff168152602001606081526020016060815260200160608152602001600067ffffffffffffffff168152602001600073ffffffffffffffffffffffffffffffffffffffff1681526020016000151581525090565b600080fd5b600080fd5b6000819050919050565b6121d9816121c6565b81146121e457600080fd5b50565b6000813590506121f6816121d0565b92915050565b600060208284031215612212576122116121bc565b5b6000612220848285016121e7565b91505092915050565b600081519050919050565b600082825260208201905092915050565b6000819050602082019050919050565b600073ffffffffffffffffffffffffffffffffffffffff82169050919050565b600061228082612255565b9050919050565b61229081612275565b82525050565b60006122a28383612287565b60208301905092915050565b6000602082019050919050565b60006122c682612229565b6122d08185612234565b93506122db83612245565b8060005b8381101561230c5781516122f38882612296565b97506122fe836122ae565b9250506001810190506122df565b5085935050505092915050565b6000602082019050818103600083015261233381846122bb565b905092915050565b612344816121c6565b82525050565b600060208201905061235f600083018461233b565b92915050565b600080fd5b600080fd5b600080fd5b60008083601f84011261238a57612389612365565b5b8235905067ffffffffffffffff8111156123a7576123a661236a565b5b6020830191508360018202830111156123c3576123c261236f565b5b9250929050565b60008060008060008060006080888a0312156123e9576123e86121bc565b5b60006123f78a828b016121e7565b975050602088013567ffffffffffffffff811115612418576124176121c1565b5b6124248a828b01612374565b9650965050604088013567ffffffffffffffff811115612447576124466121c1565b5b6124538a828b01612374565b9450945050606088013567ffffffffffffffff811115612476576124756121c1565b5b6124828a828b01612374565b925092505092959891949750929550565b600063ffffffff82169050919050565b6124ac81612493565b81146124b757600080fd5b50565b6000813590506124c9816124a3565b92915050565b600080604083850312156124e6576124e56121bc565b5b60006124f4858286016121e7565b9250506020612505858286016124ba565b9150509250929050565b61251881612493565b82525050565b600081519050919050565b600082825260208201905092915050565b60005b8381101561255857808201518184015260208101905061253d565b60008484015250505050565b6000601f19601f8301169050919050565b60006125808261251e565b61258a8185612529565b935061259a81856020860161253a565b6125a381612564565b840191505092915050565b600067ffffffffffffffff82169050919050565b6125cb816125ae565b82525050565b60008115159050919050565b6125e6816125d1565b82525050565b600060e083016000830151612604600086018261250f565b506020830151848203602086015261261c8282612575565b915050604083015184820360408601526126368282612575565b915050606083015184820360608601526126508282612575565b915050608083015161266560808601826125c2565b5060a083015161267860a0860182612287565b5060c083015161268b60c08601826125dd565b508091505092915050565b600060208201905081810360008301526126b081846125ec565b905092915050565b600080600080606085870312156126d2576126d16121bc565b5b60006126e0878288016121e7565b945050602085013567ffffffffffffffff811115612701576127006121c1565b5b61270d87828801612374565b93509350506040612720878288016121e7565b91505092959194509250565b61273581612493565b82525050565b6000602082019050612750600083018461272c565b92915050565b6000806040838503121561276d5761276c6121bc565b5b600061277b858286016121e7565b925050602061278c858286016121e7565b9150509250929050565b61279f81612275565b82525050565b60006020820190506127ba6000830184612796565b92915050565b6000806000806000606086880312156127dc576127db6121bc565b5b60006127ea888289016121e7565b955050602086013567ffffffffffffffff81111561280b5761280a6121c1565b5b61281788828901612374565b9450945050604086013567ffffffffffffffff81111561283a576128396121c1565b5b61284688828901612374565b92509250509295509295909350565b61285e816125d1565b82525050565b60006020820190506128796000830184612855565b92915050565b600082825260208201905092915050565b7f496e697469616c20636f7374206d7573742062652065786163746c792031204560008201527f5448000000000000000000000000000000000000000000000000000000000000602082015250565b60006128ec60228361287f565b91506128f782612890565b604082019050919050565b6000602082019050818103600083015261291b816128df565b9050919050565b7f55706461746520636f7374206d7573742062652065786163746c7920302e312060008201527f4554480000000000000000000000000000000000000000000000000000000000602082015250565b600061297e60238361287f565b915061298982612922565b604082019050919050565b600060208201905081810360008301526129ad81612971565b9050919050565b7f4e487b7100000000000000000000000000000000000000000000000000000000600052601260045260246000fd5b7f4e487b7100000000000000000000000000000000000000000000000000000000600052601160045260246000fd5b6000612a1d826121c6565b9150612a28836121c6565b925082612a3857612a376129b4565b5b828204905092915050565b7f4e487b7100000000000000000000000000000000000000000000000000000000600052603260045260246000fd5b6000612a7d826121c6565b91507fffffffffffffffffffffffffffffffffffffffffffffffffffffffffffffffff8203612aaf57612aae6129e3565b5b600182019050919050565b6000612ac5826121c6565b9150612ad0836121c6565b9250828201905080821115612ae857612ae76129e3565b5b92915050565b6000612af982612493565b9150612b0483612493565b9250828201905063ffffffff811115612b2057612b1f6129e3565b5b92915050565b7f4e487b7100000000000000000000000000000000000000000000000000000000600052604160045260246000fd5b7f4e487b7100000000000000000000000000000000000000000000000000000000600052602260045260246000fd5b60006002820490506001821680612b9c57607f821691505b602082108103612baf57612bae612b55565b5b50919050565b60008190508160005260206000209050919050565b60006020601f8301049050919050565b600082821b905092915050565b600060088302612c177fffffffffffffffffffffffffffffffffffffffffffffffffffffffffffffffff82612bda565b612c218683612bda565b95508019841693508086168417925050509392505050565b6000819050919050565b6000612c5e612c59612c54846121c6565b612c39565b6121c6565b9050919050565b6000819050919050565b612c7883612c43565b612c8c612c8482612c65565b848454612be7565b825550505050565b600090565b612ca1612c94565b612cac818484612c6f565b505050565b5b81811015612cd057612cc5600082612c99565b600181019050612cb2565b5050565b601f821115612d1557612ce681612bb5565b612cef84612bca565b81016020851015612cfe578190505b612d12612d0a85612bca565b830182612cb1565b50505b505050565b600082821c905092915050565b6000612d3860001984600802612d1a565b1980831691505092915050565b6000612d518383612d27565b9150826002028217905092915050565b612d6a8261251e565b67ffffffffffffffff811115612d8357612d82612b26565b5b612d8d8254612b84565b612d98828285612cd4565b600060209050601f831160018114612dcb5760008415612db9578287015190505b612dc38582612d45565b865550612e2b565b601f198416612dd986612bb5565b60005b82811015612e0157848901518255600182019150602085019450602081019050612ddc565b86831015612e1e5784890151612e1a601f891682612d27565b8355505b6001600288020188555050505b505050505050565b7f4e6f206578697374696e67207265636f72640000000000000000000000000000600082015250565b6000612e6960128361287f565b9150612e7482612e33565b602082019050919050565b60006020820190508181036000830152612e9881612e5c565b9050919050565b7f4f6e6c7920686f6d652062616e6b20616c6c6f77656400000000000000000000600082015250565b6000612ed560168361287f565b9150612ee082612e9f565b602082019050919050565b60006020820190508181036000830152612f0481612ec8565b9050919050565b7f496e76616c69642076657273696f6e0000000000000000000000000000000000600082015250565b6000612f41600f8361287f565b9150612f4c82612f0b565b602082019050919050565b60006020820190508181036000830152612f7081612f34565b9050919050565b6000612f8282612493565b9150612f8d83612493565b9250828203905063ffffffff811115612fa957612fa86129e3565b5b92915050565b7f56657273696f6e20616c7265616479207265766f6b6564000000000000000000600082015250565b6000612fe560178361287f565b9150612ff082612faf565b602082019050919050565b6000602082019050818103600083015261301481612fd8565b9050919050565b7f4e6f204b5943207265636f726420657869737473000000000000000000000000600082015250565b600061305160148361287f565b915061305c8261301b565b602082019050919050565b6000602082019050818103600083015261308081613044565b9050919050565b7f4e657720686173682063616e6e6f7420626520656d7074790000000000000000600082015250565b60006130bd60188361287f565b91506130c882613087565b602082019050919050565b600060208201905081810360008301526130ec816130b0565b9050919050565b7f436f737420736c696365206d7573742062652067726561746572207468616e2060008201527f3000000000000000000000000000000000000000000000000000000000000000602082015250565b600061314f60218361287f565b915061315a826130f3565b604082019050919050565b6000602082019050818103600083015261317e81613142565b9050919050565b6000613190826121c6565b915061319b836121c6565b92508282039050818111156131b3576131b26129e3565b5b92915050565b82818337600083830152505050565b60006131d4838561287f565b93506131e18385846131b9565b6131ea83612564565b840190509392505050565b600060408201905081810360008301526132108185876131c8565b905061321f602083018461233b565b949350505050565b7f4e6f206a6f696e65642062616e6b7320746f2072656261746500000000000000600082015250565b600061325d60198361287f565b915061326882613227565b602082019050919050565b6000602082019050818103600083015261328c81613250565b9050919050565b7f496e73756666696369656e7420636f6e74726163742062616c616e6365000000600082015250565b60006132c9601d8361287f565b91506132d482613293565b602082019050919050565b600060208201905081810360008301526132f8816132bc565b9050919050565b7f5061796d656e74206d7573742062652067726561746572207468616e20300000600082015250565b6000613335601e8361287f565b9150613340826132ff565b602082019050919050565b6000602082019050818103600083015261336481613328565b9050919050565b7f416c72656164792070617274696369706174696e670000000000000000000000600082015250565b60006133a160158361287f565b91506133ac8261336b565b602082019050919050565b600060208201905081810360008301526133d081613394565b9050919050565b7f496e636f727265637420736861726520616d6f756e7400000000000000000000600082015250565b600061340d60168361287f565b9150613418826133d7565b602082019050919050565b6000602082019050818103600083015261343c81613400565b9050919050565b7f4e6f20656d657267656e63792061646d696e0000000000000000000000000000600082015250565b600061347960128361287f565b915061348482613443565b602082019050919050565b600060208201905081810360008301526134a88161346c565b9050919050565b7f4f6e6c7920656d657267656e63792061646d696e000000000000000000000000600082015250565b60006134e560148361287f565b91506134f0826134af565b602082019050919050565b60006020820190508181036000830152613514816134d8565b9050919050565b600081905092915050565b6000613532838561351b565b935061353f8385846131b9565b82840190509392505050565b6000613558828486613526565b9150819050939250505056fea2646970667358221220cb6022bc2a4ed0f90972a5085033abc6fa0b21ac0ac51eeffe49ca278083ee0a64736f6c63430008110033",
  "linkReferences": {},
  "deployedLinkReferences": {}
}